:0300000002041CDB
:0C041C00787FE4F6D8FD75813D02046392
:0406BF007F027E0038
:0406C3008E168F17E9
:1006C700E4F51AF51BC3E51B9517E51A9516502691
:1006D700439FDFE4F518F5191208940519E5197019
:1006E700020518C394FAE518940040EC051BE51BB6
:0606F70070D3051A80CF4C
:0106FD0022DA
:10075B0020B4091206BF20B403753B0120B5091262
:10076B0006BF20B503753B0220B6091206BF20B6A3
:05077B0003753B0322A1
:05063200C186013B0040
:10052700E4F508F509F50AF50B1201DB30B60620EC
:10053700A70375275530B24730B344E52764557094
:1005470033439FDF12089412075B200427E53B60C3
:100557001D24FE600C14600E240270181207BE8062
:100567000812088B80031207D9E4F53080061208B9
:1005770094439FDFE53BB40406E4F53B12088B4345
:0A0587009FDF12089412036C80A29B
:06063700023900BEC107FC
:0E086100758901758DDC758C00C28DD28C22DC
:10083E00438920758DFD758BFD75985053877FD23A
:02084E008E22F8
:01000A0022D3
:07000300D2A9D2ACD2AF225A
:1001DB00E4F50C539F7F439FDFD280D281D283D231
:1001EB0082C2AF20864B30A748E50CC39403501452
:1001FB00C2857F327E001206C3D2857F327E00120B
:10020B0006C3050C120894439FDFE50CB403D420FE
:10021B00B40920B506D280C2818004D280D281205D
:10022B00B60920B506D283C28280B8D283D282802F
:10023B00B2D280D281D283D282E50CB40313C285B1
:10024B007F647E001206C3D285120894439FDF8021
:10025B00F87F5512080E8F0CE50C64AA7027439F8C
:10026B00DF1208947F0F12080E7539008F3A439FE7
:10027B00DF1208947F1012080EEFFEE4253AF53AD0
:10028B00EE3539F539439FDF1208941208611208D5
:0F029B003E439FDF12089412000330A702D207E0
:0102AA002231
:05089400C2A4D2A42261
:1006FE00153DA83DA605153DA83DA60712086FC2DB
:10070E00A2C2A47F02120780A83D08E6FF1207804E
:10071E00A83DE6FF120780C2A2D2A412000E120854
:06072E007D053D053D22A2
:02080E008F0D4C
:10081000C2A2C2A47F03120780AF0D120780120785
:05082000F4C2A2D2A405
:0108250022B0
:100780007E80E4FDC2A2EF8EF08424FF92A1D2A26B
:10079000EF8EF084AFF0EEC313FE0DBD08E6C2A1EC
:0107A0002236
:10000E00E4F500120850530701E500C394055003B0
:03001E00EF70F090
:0100210022BC
:10085000C2A2C2A47F051207801207F4C2A2D2A4CA
:010860002275
:1007F400E4FFFED2A3D2A2C2A2EF30A3052F04FFCE
:09080400800325E0FF0EBE08EAA6
:01080D0022C8
:1007A1008F3C12086FC2A2C2A47F01120780AF3C26
:0D07B100120780C2A2D2A412000E02087D21
:0E086F00C2A2C2A47F06120780C2A2D2A42297
:0E087D00C2A2C2A47F04120780C2A2D2A4228B
:10063D00012C0A0128000225000002220000012DD4
:10064D0000022A0000012403012755012955C10389
:0D065D00C104C101C180C102C185012E553B
:020734008F1420
:10073600E4F515F515E515C395145016C2857F1415
:100746007E001206C3D2857F147E001206C30515ED
:0407560080E3D285E5
:01075A00227C
:10036C00E52DC39464500302041B30865E30A75BFA
:10037C00308354308251E52B65267004E52A6525BF
:10038C0060497D557FAA1206FE120894439FDF7DBB
:10039C000FAF26E5261206FE120894439FDF7D1050
:1003AC00E525FF1206FE120894439FDFE4F52DD2DB
:1003BC000385252A85262B85253985263A75240320
:1003CC007F021207348004D283D28230864120A768
:1003DC003E120894439FDF7F5512080E1208944377
:1003EC009FDF7D557F001206FEC2857F147E0012B2
:1003FC0006C3D2857F147E001206C3C2857F147E8D
:10040C00001206C3D285753900753ABEE4F52D226B
:1002AB00439FDF120894C3E5269468E5259401501B
:1002BB0021200720A2B4928320B419E4F53005263F
:1002CB00E52670020525D28275295585251EF51F59
:1002DB008002D283D3E5269400E5259400403AE4CE
:1002EB00F522F52330A7217527AAA2B6928220B654
:1002FB0048F530E526152670021525D2837529554C
:10030B0085251E85261F8031D282E4F525F5263002
:10031B00B602D202300222801B30A706A2B692820E
:10032B008017D282E4F525F52630B605D202752763
:10033B0055300205752755C20220B507E4F5300587
:10034B002D8014E52DD39401400AE52D94325004F1
:10035B00D283D282E4F52D20A70630B6037527553C
:01036B00226F
:03000B00020026CA
:10002600C0E0C0F0C083C082C0D075D000C000C0A0
:1000360001C002C003C004C005C006C007C28C755B
:100046008A00758CDCD28C120894439FDF209704BB
:10005600C284803920A517753866300630E52EB47F
:10006600AA05752E558003752EAAC206801FD206D4
:10007600E53824AB600824117008C284800FD2844E
:10008600800BE52EB4AA04C2848002D28430B26DFD
:1000960030B36AD20530860B308708D52C05B28579
:1000A600752C0A30864630003E7527AA30B40630D5
:1000B600B50320B605C200753000E529B4AA242090
:1000C6000702C2830526E52670020525B53A0CE52A
:1000D60025B53907C200D28375295585251E852683
:1000E6001F803BC20080371202AB80327525007537
:1000F6002600D283D282752955D200802175300020
:10010600300513753B0420041520B2051205E68060
:100116000D1205918008E53BB4020312088B20A658
:1001260004D204C2052004030201BDE5287052E58D
:100136003B601B24FD600F1460282403703C753B54
:10014600031207D9802A753B011207BE8022E530CB
:1001560024EF600924EF7022753011801375302268
:10016600800E20B205753011800620B30A75302244
:100176007F0312073480037530337528C8D2018097
:100186003620860330871530B40530B602C20475B2
:100196003B02C20175303375280080021528C2055E
:1001A600E528701330011030B40530B602C204756C
:1001B6003B02C201753033120826D007D006D0059F
:1001C600D004D003D002D001D000D0D0D082D083CA
:0501D600D0F0D0E03282
:07066A00021E0000011D004B
:1007BE0030A705D281D28022308606D281D28080A7
:0B07CE0007C281D2807529AAC2072251
:1007D90030A705D281D28022308706D281D280808B
:0B07E90007D281C2807529AAC2072236
:05089900C283D282229F
:05089E00D283C282229A
:09088B00D280D281D283D28222F4
:1005E60020860C30A709D281D280D283D2822230D3
:1005F600862CD281D280C3E51F94BEE51E9400509E
:1006060011200712C283D282051FE51F7008051E3E
:100616008004D283D282851E25851F268008C2814A
:0C062600D280D283D28220A702C2072219
:1005910020860C30A709D281D280D283D282222038
:1005A100A71FE4F51DD283D282752755308706D265
:1005B10081D2808004D281C280E4F51EF51FC2077A
:1005C10022D3E51F9400E51E9400400AE51F151F84
:1005D1007004151E8000D283C282D281D280851E12
:0405E10025851F2627
:0105E50022F3
:0B067100C108013000013800012F001B
:10067D00E590F465346004E5347036E53514600DAD
:10068D0014601524FD601E240570268014E536B413
:10069D000104753022228009E536B401047530114C
:1006AD002275303322E536B401047538442275388D
:0206BD005522C4
:030023000204A82C
:1004A800C0E0C0F0C083C082C0D075D000C000C01A
:0D04B80001C002C003C004C005C006C0079B
:1004C500751C00120894439FDF309902C299309839
:1004D50036C29885991C30081B7431252FF8A61C47
:1004E500052FE52FB40720752F00C20812067D756C
:1004F5003B008013E51CB4F60E752F00D20874314D
:07050500252FF8A61C052FAD
:10050C00D007D006D005D004D003D002D001D00043
:0B051C00D0D0D082D083D0F0D0E032ED
:10082600E53024EF600E24DE60072411700902050E
:08083600E602088B1205912275
:10042800020527E493A3F8E493A34003F68001F2BE
:1004380008DFF48029E493A3F85407240CC8C333D5
:10044800C4540F4420C8834004F456800146F6DFA4
:10045800E4800B0102040810204080900632E47EFC
:10046800019360BCA3FF543F30E509541FFEE49399
:10047800A360010ECF54C025E060A840B8E493A360
:10048800FAE493A3F8E493A3C8C582C8CAC583CA8B
:10049800F0A3C8C582C8CAC583CADFE9DEE780BE43
:01067C00007D
:00000001FF
